{"abi":[{"type":"constructor","inputs":[{"name":"_merkleRoot","type":"bytes32","internalType":"bytes32"},{"name":"_tokenAddress","type":"address","internalType":"contract IERC20"}],"stateMutability":"nonpayable"},{"type":"function","name":"claim","inputs":[{"name":"account","type":"address","internalType":"address"},{"name":"amount","type":"uint256","internalType":"uint256"},{"name":"merkleProof","type":"bytes32[]","internalType":"bytes32[]"}],"outputs":[],"stateMutability":"nonpayable"},{"type":"function","name":"getAirDropTokenAddress","inputs":[],"outputs":[{"name":"","type":"address","internalType":"contract IERC20"}],"stateMutability":"view"},{"type":"function","name":"getClaimState","inputs":[{"name":"account","type":"address","internalType":"address"}],"outputs":[{"name":"","type":"bool","internalType":"bool"}],"stateMutability":"view"},{"type":"function","name":"getMerkleRoot","inputs":[],"outputs":[{"name":"","type":"bytes32","internalType":"bytes32"}],"stateMutability":"view"},{"type":"function","name":"hasClaimed","inputs":[{"name":"","type":"address","internalType":"address"}],"outputs":[{"name":"","type":"bool","internalType":"bool"}],"stateMutability":"view"},{"type":"function","name":"lulucoin","inputs":[],"outputs":[{"name":"","type":"address","internalType":"contract IERC20"}],"stateMutability":"view"},{"type":"event","name":"LLCAirDrop__Claimed","inputs":[{"name":"account","type":"address","indexed":false,"internalType":"address"},{"name":"amount","type":"uint256","indexed":false,"internalType":"uint256"}],"anonymous":false},{"type":"error","name":"LLCAirDrop__AlreadyClaimed","inputs":[]},{"type":"error","name":"LLCAirDrop__InvaildAmount","inputs":[]},{"type":"error","name":"LLCAirDrop__InvalidProof","inputs":[]},{"type":"error","name":"SafeERC20FailedOperation","inputs":[{"name":"token","type":"address","internalType":"address"}]}],"bytecode":{"object":"0x60c060405234801561000f575f5ffd5b50604051610c3a380380610c3a83398181016040528101906100319190610116565b8160a081815250508073ffffffffffffffffffffffffffffffffffffffff1660808173ffffffffffffffffffffffffffffffffffffffff16815250505050610154565b5f5ffd5b5f819050919050565b61008a81610078565b8114610094575f5ffd5b50565b5f815190506100a581610081565b92915050565b5f73ffffffffffffffffffffffffffffffffffffffff82169050919050565b5f6100d4826100ab565b9050919050565b5f6100e5826100ca565b9050919050565b6100f5816100db565b81146100ff575f5ffd5b50565b5f81519050610110816100ec565b92915050565b5f5f6040838503121561012c5761012b610074565b5b5f61013985828601610097565b925050602061014a85828601610102565b9150509250929050565b60805160a051610aa96101915f395f8181610354015261049101525f818161013d0152818161016d015281816103ef01526104b70152610aa95ff3fe608060405234801561000f575f5ffd5b5060043610610060575f3560e01c806312795476146100645780633d13f87414610082578063495906571461009e5780636faccb99146100bc57806373b2e80e146100da578063e767170c1461010a575b5f5ffd5b61006c61013a565b604051610079919061077f565b60405180910390f35b61009c6004803603810190610097919061086f565b610161565b005b6100a661048e565b6040516100b391906108f8565b60405180910390f35b6100c46104b5565b6040516100d1919061077f565b60405180910390f35b6100f460048036038101906100ef9190610911565b6104d9565b6040516101019190610956565b60405180910390f35b610124600480360381019061011f9190610911565b6104f5565b6040516101319190610956565b60405180910390f35b5f7f0000000000000000000000000000000000000000000000000000000000000000905090565b5f8314806102055750827f000000000000000000000000000000000000000000000000000000000000000073ffffffffffffffffffffffffffffffffffffffff166370a08231306040518263ffffffff1660e01b81526004016101c4919061097e565b602060405180830381865afa1580156101df573d5f5f3e3d5ffd5b505050506040513d601f19601f8201168201806040525081019061020391906109ab565b105b1561023c576040517f4229928300000000000000000000000000000000000000000000000000000000815260040160405180910390fd5b5f5f8573ffffffffffffffffffffffffffffffffffffffff1673ffffffffffffffffffffffffffffffffffffffff1681526020019081526020015f205f9054906101000a900460ff16156102bc576040517fe64e7b0600000000000000000000000000000000000000000000000000000000815260040160405180910390fd5b5f84846040516020016102d09291906109e5565b604051602081830303815290604052805190602001206040516020016102f69190610a2c565b6040516020818303038152906040528051906020012090506103798383808060200260200160405190810160405280939291908181526020018383602002808284375f81840152601f19601f820116905080830192505050505050507f000000000000000000000000000000000000000000000000000000000000000083610546565b6103af576040517f7fa7efa100000000000000000000000000000000000000000000000000000000815260040160405180910390fd5b7fefd4a71bc34d21eba6a66dab4f87098723be3961bb7a436d3c1c7e66a62f076485856040516103e09291906109e5565b60405180910390a161043385857f000000000000000000000000000000000000000000000000000000000000000073ffffffffffffffffffffffffffffffffffffffff1661055c9092919063ffffffff16565b60015f5f8773ffffffffffffffffffffffffffffffffffffffff1673ffffffffffffffffffffffffffffffffffffffff1681526020019081526020015f205f6101000a81548160ff0219169083151502179055505050505050565b5f7f0000000000000000000000000000000000000000000000000000000000000000905090565b7f000000000000000000000000000000000000000000000000000000000000000081565b5f602052805f5260405f205f915054906101000a900460ff1681565b5f5f5f8373ffffffffffffffffffffffffffffffffffffffff1673ffffffffffffffffffffffffffffffffffffffff1681526020019081526020015f205f9054906101000a900460ff169050919050565b5f8261055285846105db565b1490509392505050565b6105d6838473ffffffffffffffffffffffffffffffffffffffff1663a9059cbb858560405160240161058f9291906109e5565b604051602081830303815290604052915060e01b6020820180517bffffffffffffffffffffffffffffffffffffffffffffffffffffffff838183161783525050505061062c565b505050565b5f5f8290505f5f90505b8451811015610621576106128286838151811061060557610604610a46565b5b60200260200101516106c7565b915080806001019150506105e5565b508091505092915050565b5f5f60205f8451602086015f885af18061064b576040513d5f823e3d81fd5b3d92505f519150505f821461066457600181141561067f565b5f8473ffffffffffffffffffffffffffffffffffffffff163b145b156106c157836040517f5274afe70000000000000000000000000000000000000000000000000000000081526004016106b8919061097e565b60405180910390fd5b50505050565b5f8183106106de576106d982846106f1565b6106e9565b6106e883836106f1565b5b905092915050565b5f825f528160205260405f20905092915050565b5f73ffffffffffffffffffffffffffffffffffffffff82169050919050565b5f819050919050565b5f61074761074261073d84610705565b610724565b610705565b9050919050565b5f6107588261072d565b9050919050565b5f6107698261074e565b9050919050565b6107798161075f565b82525050565b5f6020820190506107925f830184610770565b92915050565b5f5ffd5b5f5ffd5b5f6107aa82610705565b9050919050565b6107ba816107a0565b81146107c4575f5ffd5b50565b5f813590506107d5816107b1565b92915050565b5f819050919050565b6107ed816107db565b81146107f7575f5ffd5b50565b5f81359050610808816107e4565b92915050565b5f5ffd5b5f5ffd5b5f5ffd5b5f5f83601f84011261082f5761082e61080e565b5b8235905067ffffffffffffffff81111561084c5761084b610812565b5b60208301915083602082028301111561086857610867610816565b5b9250929050565b5f5f5f5f6060858703121561088757610886610798565b5b5f610894878288016107c7565b94505060206108a5878288016107fa565b935050604085013567ffffffffffffffff8111156108c6576108c561079c565b5b6108d28782880161081a565b925092505092959194509250565b5f819050919050565b6108f2816108e0565b82525050565b5f60208201905061090b5f8301846108e9565b92915050565b5f6020828403121561092657610925610798565b5b5f610933848285016107c7565b91505092915050565b5f8115159050919050565b6109508161093c565b82525050565b5f6020820190506109695f830184610947565b92915050565b610978816107a0565b82525050565b5f6020820190506109915f83018461096f565b92915050565b5f815190506109a5816107e4565b92915050565b5f602082840312156109c0576109bf610798565b5b5f6109cd84828501610997565b91505092915050565b6109df816107db565b82525050565b5f6040820190506109f85f83018561096f565b610a0560208301846109d6565b9392505050565b5f819050919050565b610a26610a21826108e0565b610a0c565b82525050565b5f610a378284610a15565b60208201915081905092915050565b7f4e487b71000000000000000000000000000000000000000000000000000000005f52603260045260245ffdfea2646970667358221220f8f8ff4628f0972fa32e508d9d120c670c8a65d5d9762d4e2e56860f6d1a470564736f6c634300081c0033","linkReferences":{}},"methodIdentifiers":{"claim(address,uint256,bytes32[])":"3d13f874","getAirDropTokenAddress()":"12795476","getClaimState(address)":"e767170c","getMerkleRoot()":"49590657","hasClaimed(address)":"73b2e80e","lulucoin()":"6faccb99"},"id":13}