{"abi":[{"type":"constructor","inputs":[{"name":"_tokenAddress","type":"address","internalType":"address"},{"name":"_dripInterval","type":"uint256","internalType":"uint256"},{"name":"_dripLimit","type":"uint256","internalType":"uint256"},{"name":"_owner","type":"address","internalType":"address"}],"stateMutability":"nonpayable"},{"type":"function","name":"deposit","inputs":[{"name":"_amount","type":"uint256","internalType":"uint256"}],"outputs":[],"stateMutability":"nonpayable"},{"type":"function","name":"drip","inputs":[{"name":"_amount","type":"uint256","internalType":"uint256"}],"outputs":[],"stateMutability":"nonpayable"},{"type":"function","name":"dripInterval","inputs":[],"outputs":[{"name":"","type":"uint256","internalType":"uint256"}],"stateMutability":"view"},{"type":"function","name":"dripLimit","inputs":[],"outputs":[{"name":"","type":"uint256","internalType":"uint256"}],"stateMutability":"view"},{"type":"function","name":"getDripInterval","inputs":[],"outputs":[{"name":"","type":"uint256","internalType":"uint256"}],"stateMutability":"view"},{"type":"function","name":"getDripLimit","inputs":[],"outputs":[{"name":"","type":"uint256","internalType":"uint256"}],"stateMutability":"view"},{"type":"function","name":"getDripTime","inputs":[{"name":"_user","type":"address","internalType":"address"}],"outputs":[{"name":"","type":"uint256","internalType":"uint256"}],"stateMutability":"view"},{"type":"function","name":"owner","inputs":[],"outputs":[{"name":"","type":"address","internalType":"address"}],"stateMutability":"view"},{"type":"function","name":"renounceOwnership","inputs":[],"outputs":[],"stateMutability":"nonpayable"},{"type":"function","name":"setDripInterval","inputs":[{"name":"_newDripInterval","type":"uint256","internalType":"uint256"}],"outputs":[],"stateMutability":"nonpayable"},{"type":"function","name":"setDripLimit","inputs":[{"name":"_newDripLimit","type":"uint256","internalType":"uint256"}],"outputs":[],"stateMutability":"nonpayable"},{"type":"function","name":"setTokenAddress","inputs":[{"name":"_newTokenAddress","type":"address","internalType":"address"}],"outputs":[],"stateMutability":"nonpayable"},{"type":"function","name":"token","inputs":[],"outputs":[{"name":"","type":"address","internalType":"contract IERC20"}],"stateMutability":"view"},{"type":"function","name":"tokenAddress","inputs":[],"outputs":[{"name":"","type":"address","internalType":"address"}],"stateMutability":"view"},{"type":"function","name":"transferOwnership","inputs":[{"name":"newOwner","type":"address","internalType":"address"}],"outputs":[],"stateMutability":"nonpayable"},{"type":"event","name":"LLCFaucet__Drip","inputs":[{"name":"Receiver","type":"address","indexed":true,"internalType":"address"},{"name":"Amount","type":"uint256","indexed":true,"internalType":"uint256"}],"anonymous":false},{"type":"event","name":"LLCFaucet__OwnerDeposit","inputs":[{"name":"amount","type":"uint256","indexed":true,"internalType":"uint256"}],"anonymous":false},{"type":"event","name":"OwnershipTransferred","inputs":[{"name":"previousOwner","type":"address","indexed":true,"internalType":"address"},{"name":"newOwner","type":"address","indexed":true,"internalType":"address"}],"anonymous":false},{"type":"error","name":"LLCFaucet__ExceedLimit","inputs":[]},{"type":"error","name":"LLCFaucet__FaucetEmpty","inputs":[]},{"type":"error","name":"LLCFaucet__IntervalHasNotPassed","inputs":[]},{"type":"error","name":"LLCFaucet__InvalidAmount","inputs":[]},{"type":"error","name":"OwnableInvalidOwner","inputs":[{"name":"owner","type":"address","internalType":"address"}]},{"type":"error","name":"OwnableUnauthorizedAccount","inputs":[{"name":"account","type":"address","internalType":"address"}]},{"type":"error","name":"SafeERC20FailedOperation","inputs":[{"name":"token","type":"address","internalType":"address"}]}],"bytecode":{"object":"0x608060405234801561000f575f5ffd5b5060405161116f38038061116f8339818101604052810190610031919061029b565b805f73ffffffffffffffffffffffffffffffffffffffff168173ffffffffffffffffffffffffffffffffffffffff16036100a2575f6040517f1e4fbdf7000000000000000000000000000000000000000000000000000000008152600401610099919061030e565b60405180910390fd5b6100b18161014960201b60201c565b508360025f6101000a81548173ffffffffffffffffffffffffffffffffffffffff021916908373ffffffffffffffffffffffffffffffffffffffff16021790555082600381905550816004819055508360015f6101000a81548173ffffffffffffffffffffffffffffffffffffffff021916908373ffffffffffffffffffffffffffffffffffffffff16021790555050505050610327565b5f5f5f9054906101000a900473ffffffffffffffffffffffffffffffffffffffff169050815f5f6101000a81548173ffffffffffffffffffffffffffffffffffffffff021916908373ffffffffffffffffffffffffffffffffffffffff1602179055508173ffffffffffffffffffffffffffffffffffffffff168173ffffffffffffffffffffffffffffffffffffffff167f8be0079c531659141344cd1fd0a4f28419497f9722a3daafe3b4186f6b6457e060405160405180910390a35050565b5f5ffd5b5f73ffffffffffffffffffffffffffffffffffffffff82169050919050565b5f6102378261020e565b9050919050565b6102478161022d565b8114610251575f5ffd5b50565b5f815190506102628161023e565b92915050565b5f819050919050565b61027a81610268565b8114610284575f5ffd5b50565b5f8151905061029581610271565b92915050565b5f5f5f5f608085870312156102b3576102b261020a565b5b5f6102c087828801610254565b94505060206102d187828801610287565b93505060406102e287828801610287565b92505060606102f387828801610254565b91505092959194509250565b6103088161022d565b82525050565b5f6020820190506103215f8301846102ff565b92915050565b610e3b806103345f395ff3fe608060405234801561000f575f5ffd5b50600436106100f3575f3560e01c8063715018a611610095578063b1c6d07b11610064578063b1c6d07b14610225578063b6b55f2514610255578063f2fde38b14610271578063fc0c546a1461028d576100f3565b8063715018a6146101c35780638da5cb5b146101cd5780639d76ea58146101eb578063a9a89db914610209576100f3565b80634bd74aa6116100d15780634bd74aa61461014f5780634d4c7d111461016b57806358326b7a146101895780636a214811146101a5576100f3565b8063079da0b3146100f757806308b930aa1461011557806326a4e8d214610133575b5f5ffd5b6100ff6102ab565b60405161010c9190610b77565b60405180910390f35b61011d6102b4565b60405161012a9190610b77565b60405180910390f35b61014d60048036038101906101489190610bee565b6102bd565b005b61016960048036038101906101649190610c43565b610308565b005b61017361031a565b6040516101809190610b77565b60405180910390f35b6101a3600480360381019061019e9190610c43565b610320565b005b6101ad6105a8565b6040516101ba9190610b77565b60405180910390f35b6101cb6105ae565b005b6101d56105c1565b6040516101e29190610c7d565b60405180910390f35b6101f36105e8565b6040516102009190610c7d565b60405180910390f35b610223600480360381019061021e9190610c43565b61060d565b005b61023f600480360381019061023a9190610bee565b61061f565b60405161024c9190610b77565b60405180910390f35b61026f600480360381019061026a9190610c43565b610665565b005b61028b60048036038101906102869190610bee565b6107cb565b005b61029561084f565b6040516102a29190610cf1565b60405180910390f35b5f600454905090565b5f600354905090565b6102c5610874565b8060025f6101000a81548173ffffffffffffffffffffffffffffffffffffffff021916908373ffffffffffffffffffffffffffffffffffffffff16021790555050565b610310610874565b8060048190555050565b60045481565b5f81905060035460055f6103326108fb565b73ffffffffffffffffffffffffffffffffffffffff1673ffffffffffffffffffffffffffffffffffffffff1681526020019081526020015f20546103769190610d37565b4210156103af576040517fe28e4f7b00000000000000000000000000000000000000000000000000000000815260040160405180910390fd5b6004548111156103eb576040517fa27a5db000000000000000000000000000000000000000000000000000000000815260040160405180910390fd5b8060015f9054906101000a900473ffffffffffffffffffffffffffffffffffffffff1673ffffffffffffffffffffffffffffffffffffffff166370a08231306040518263ffffffff1660e01b81526004016104469190610c7d565b602060405180830381865afa158015610461573d5f5f3e3d5ffd5b505050506040513d601f19601f820116820180604052508101906104859190610d7e565b10156104bd576040517f8005eae600000000000000000000000000000000000000000000000000000000815260040160405180910390fd5b4260055f6104c96108fb565b73ffffffffffffffffffffffffffffffffffffffff1673ffffffffffffffffffffffffffffffffffffffff1681526020019081526020015f20819055506105596105116108fb565b8260015f9054906101000a900473ffffffffffffffffffffffffffffffffffffffff1673ffffffffffffffffffffffffffffffffffffffff166109029092919063ffffffff16565b806105626108fb565b73ffffffffffffffffffffffffffffffffffffffff167fafaf7a83a0f83675273952773400db39a694d5bb7efaf9ef12a31d4ca373069260405160405180910390a35050565b60035481565b6105b6610874565b6105bf5f610981565b565b5f5f5f9054906101000a900473ffffffffffffffffffffffffffffffffffffffff16905090565b60025f9054906101000a900473ffffffffffffffffffffffffffffffffffffffff1681565b610615610874565b8060038190555050565b5f60055f8373ffffffffffffffffffffffffffffffffffffffff1673ffffffffffffffffffffffffffffffffffffffff1681526020019081526020015f20549050919050565b61066d610874565b60015f9054906101000a900473ffffffffffffffffffffffffffffffffffffffff1673ffffffffffffffffffffffffffffffffffffffff166370a082316106b26108fb565b6040518263ffffffff1660e01b81526004016106ce9190610c7d565b602060405180830381865afa1580156106e9573d5f5f3e3d5ffd5b505050506040513d601f19601f8201168201806040525081019061070d9190610d7e565b811115610746576040517f6a3ecd8e00000000000000000000000000000000000000000000000000000000815260040160405180910390fd5b61079b6107516108fb565b308360015f9054906101000a900473ffffffffffffffffffffffffffffffffffffffff1673ffffffffffffffffffffffffffffffffffffffff16610a42909392919063ffffffff16565b807fc3ac03ae21a261154f55c7642997a2e3bc49858ef245ca846a0a09ba76dcae4060405160405180910390a250565b6107d3610874565b5f73ffffffffffffffffffffffffffffffffffffffff168173ffffffffffffffffffffffffffffffffffffffff1603610843575f6040517f1e4fbdf700000000000000000000000000000000000000000000000000000000815260040161083a9190610c7d565b60405180910390fd5b61084c81610981565b50565b60015f9054906101000a900473ffffffffffffffffffffffffffffffffffffffff1681565b61087c6108fb565b73ffffffffffffffffffffffffffffffffffffffff1661089a6105c1565b73ffffffffffffffffffffffffffffffffffffffff16146108f9576108bd6108fb565b6040517f118cdaa70000000000000000000000000000000000000000000000000000000081526004016108f09190610c7d565b60405180910390fd5b565b5f33905090565b61097c838473ffffffffffffffffffffffffffffffffffffffff1663a9059cbb8585604051602401610935929190610da9565b604051602081830303815290604052915060e01b6020820180517bffffffffffffffffffffffffffffffffffffffffffffffffffffffff8381831617835250505050610ac4565b505050565b5f5f5f9054906101000a900473ffffffffffffffffffffffffffffffffffffffff169050815f5f6101000a81548173ffffffffffffffffffffffffffffffffffffffff021916908373ffffffffffffffffffffffffffffffffffffffff1602179055508173ffffffffffffffffffffffffffffffffffffffff168173ffffffffffffffffffffffffffffffffffffffff167f8be0079c531659141344cd1fd0a4f28419497f9722a3daafe3b4186f6b6457e060405160405180910390a35050565b610abe848573ffffffffffffffffffffffffffffffffffffffff166323b872dd868686604051602401610a7793929190610dd0565b604051602081830303815290604052915060e01b6020820180517bffffffffffffffffffffffffffffffffffffffffffffffffffffffff8381831617835250505050610ac4565b50505050565b5f5f60205f8451602086015f885af180610ae3576040513d5f823e3d81fd5b3d92505f519150505f8214610afc576001811415610b17565b5f8473ffffffffffffffffffffffffffffffffffffffff163b145b15610b5957836040517f5274afe7000000000000000000000000000000000000000000000000000000008152600401610b509190610c7d565b60405180910390fd5b50505050565b5f819050919050565b610b7181610b5f565b82525050565b5f602082019050610b8a5f830184610b68565b92915050565b5f5ffd5b5f73ffffffffffffffffffffffffffffffffffffffff82169050919050565b5f610bbd82610b94565b9050919050565b610bcd81610bb3565b8114610bd7575f5ffd5b50565b5f81359050610be881610bc4565b92915050565b5f60208284031215610c0357610c02610b90565b5b5f610c1084828501610bda565b91505092915050565b610c2281610b5f565b8114610c2c575f5ffd5b50565b5f81359050610c3d81610c19565b92915050565b5f60208284031215610c5857610c57610b90565b5b5f610c6584828501610c2f565b91505092915050565b610c7781610bb3565b82525050565b5f602082019050610c905f830184610c6e565b92915050565b5f819050919050565b5f610cb9610cb4610caf84610b94565b610c96565b610b94565b9050919050565b5f610cca82610c9f565b9050919050565b5f610cdb82610cc0565b9050919050565b610ceb81610cd1565b82525050565b5f602082019050610d045f830184610ce2565b92915050565b7f4e487b71000000000000000000000000000000000000000000000000000000005f52601160045260245ffd5b5f610d4182610b5f565b9150610d4c83610b5f565b9250828201905080821115610d6457610d63610d0a565b5b92915050565b5f81519050610d7881610c19565b92915050565b5f60208284031215610d9357610d92610b90565b5b5f610da084828501610d6a565b91505092915050565b5f604082019050610dbc5f830185610c6e565b610dc96020830184610b68565b9392505050565b5f606082019050610de35f830186610c6e565b610df06020830185610c6e565b610dfd6040830184610b68565b94935050505056fea26469706673582212205a8c1bde31e787a79ff22e77e072a8501a8ac5d18042b648a5e21cc2744053a764736f6c634300081c0033","linkReferences":{}},"methodIdentifiers":{"deposit(uint256)":"b6b55f25","drip(uint256)":"58326b7a","dripInterval()":"6a214811","dripLimit()":"4d4c7d11","getDripInterval()":"08b930aa","getDripLimit()":"079da0b3","getDripTime(address)":"b1c6d07b","owner()":"8da5cb5b","renounceOwnership()":"715018a6","setDripInterval(uint256)":"a9a89db9","setDripLimit(uint256)":"4bd74aa6","setTokenAddress(address)":"26a4e8d2","token()":"fc0c546a","tokenAddress()":"9d76ea58","transferOwnership(address)":"f2fde38b"},"id":29}